:1000000008C1000036C1000034C1000032C1000048
:1000100030C100002EC100002CC100002AC1000028
:1000200028C1000026C1000024C1000022C1000038
:1000300020C100001EC100001CC100001AC1000048
:1000400018C10000ECC3000014C1000012C1000080
:1000500073C500000EC100000CC100000C94D9084B
:1000600008C1000086C600005BC6000002C1000097
:1000700000C10000FEC00000FCC00000FAC000008B
:10008000A1C30000F6C00000F4C00000F2C00000F0
:10009000F0C00000EEC00000ECC00000EDC30000A6
:1000A000E8C00000E6C0000060C30000E2C000003D
:1000B000E0C00000DEC00000DCC0000029C300007A
:1000C000D8C00000D6C00000D4C00000D2C00000DC
:1000D000D0C00000CEC00000CCC00000CAC00000EC
:1000E000C8C000008B088E087D0881088508C508F7
:1000F000920896089C08A008A408AA08AE08B208AE
:10010000C508B808BC08C00800002100240027006A
:100110002A002D0030003300010100000401070116
:100120000A0100002200250028002B002E003100CB
:10013000340002010000050108010B010505050559
:10014000070508080808020202020A0A080804044F
:10015000040401010101010101010303030303037D
:100160000303040707070C0C0C0C0C0C0C0C02020C
:10017000020206060606060606060B0B0B0B0B0B09
:100180000B0B010210202008081020401020408096
:10019000020102010804020101020408102040804B
:1001A00080402010080402018004020180402010D9
:1001B0000804020108040201010204081020408022
:1001C000010204081020408000000A0B02090C0DF7
:1001D0000E080703040100000000000000000000FA
:1001E000000000000000000000000000000000000F
:1001F00000000000121110000000000000000000CC
:100200000000000000000000000000000000570B8C
:10021000230911241FBECFEFD1E2DEBFCDBF00E026
:100220000CBF13E0A0E0B2E0E2E4F0E200E00BBFBC
:1002300002C007900D92AA30B107D9F727E0AAE0D3
:10024000B3E001C01D92A432B207E1F711E0C8E0AB
:10025000D1E000E006C021970109802FFE010E9435
:10026000890DC730D10780E00807A9F7EDD70C94B6
:100270001010C6CEFC01918D228D892F90E0805CFC
:100280009F4F821B91098F739927089580E090E01A
:10029000892B19F0D3D4811125C080E090E0892BFF
:1002A00041F080E090E0892B21F00E940000811154
:1002B0001CC080E090E0892B41F080E090E0892B29
:1002C00021F00E940000811113C080E090E0892B92
:1002D000A1F080E090E0892B81F00E940000811164
:1002E0000AC008950E940000D8CF0E940000E1CF0C
:1002F0000E940000EACF0C9400000895CF92DF9294
:10030000EF92FF92FC01C480D580E680F78020E068
:1003100030E047EE53E4C701B6010E945C0F20E0D5
:1003200030E040E252E418162CF0C701B6010E94FA
:10033000920D04C0C701B6010E94910D0E94F60DF6
:10034000CB01FF90EF90DF90CF90089520E030E058
:1003500040E251E4FC0164817581868197810E94AD
:10036000920D0E94F60DCB010895FC016481758108
:10037000868197810E94F60DCB010895FC0164816E
:100380007581868197810E94F60DCB010895FC014D
:1003900064817581868197810E94F60DCB01089555
:1003A000FC0164817581868197810E94F60DCB01E5
:1003B0000895CF92DF92EF92FF92FC01C480D58026
:1003C000E680F7802085318542855385C701B601D7
:1003D0000E94910D20E030E0A9010E94270E20E04C
:1003E00030E048EC51E487FD05C0C701B6010E942A
:1003F000910D04C0C701B6010E94920D0E94F60D36
:10040000CB01FF90EF90DF90CF900895CF92DF92D5
:10041000EF92FF92FC01C480D580E680F7802085B2
:10042000318542855385C701B6010E94910D20E0B8
:1004300030E0A9010E94270E20E030E040E251E4C4
:1004400087FD05C0C701B6010E94910D04C0C70118
:10045000B6010E94920D0E94F60DCB01FF90EF9025
:10046000DF90CF900895FC0160857185828593852A
:100470000E94F60DCB010895FC0164857585868583
:1004800097850E94F60DCB010895FC01608571856A
:10049000828593850E94F60DCB010895FC01648549
:1004A0007585868597850E94F60DCB010895089580
:1004B0008FEF9FEF08958FEF9FEF089580917B035B
:1004C00090E0919581959109089585ED8093BC0008
:1004D0008091BC0084FDFCCF10925503089540919B
:1004E0002F03262F30E0240F311D21323105DCF49B
:1004F000209155032430C9F4FC0180E090E0861778
:1005000058F430912F032191DC01A35FBC4FA30F5E
:10051000B11D2C930196F3CF80912F03680F609348
:100520002F0380E0089581E0089582E00895CF933D
:10053000DF931F921F92CDB7DEB7CB01642F4983A3
:100540005A83CDDF4981842F5A81952F0F900F90C8
:10055000DF91CF910895CF93DF931F92CDB7DEB790
:10056000698361E0CE010196BADF81E090E00F90EF
:10057000DF91CF9108950C94C00E0C94C00E0C9492
:10058000C00E0C94C00ECF93DF93DB01EA01FC0197
:10059000E45FFB4F208127FF04C011961C921E923E
:1005A0000DC040815CE0589F9001599F300D11248F
:1005B000240F311D47FD3A9537FD208120812F5FA3
:1005C00020834CE0489F9001499F300D1124808189
:1005D000A901480F511D87FD5A9557FF1EC0808104
:1005E0008C30DCF44D915C918081B901680F711DF4
:1005F00087FD7A95CB01DB01AA0FBB1F8A0F9B1FDA
:10060000DC01A458BC4F11968D919C911297840FD8
:10061000951F99838883808111C08D919C9111973A
:10062000049680349C4918F480E49CE903C08D91C1
:100630009C910496998388838FEF8083DF91CF917B
:100640000895FC01848DDF01A80FB11DA35ABF4F8F
:100650002C91848D90E001968F739927848FA689C1
:10066000B7892C93A089B1898C9180648C93938DE8
:10067000848D981306C00288F389E02D80818F7DD8
:100680008083089508950F931F93CF93DF93EC0118
:100690008B018EE292E0998388837B836A834C830B
:1006A0008091010690910206009719F484E090E091
:1006B0000DC02091FD053091FE052817390739F44A
:1006C000C901880F991F281739070CF4C7D4E09186
:1006D000FD05F091FE05EE0FFF1F8091FF05909143
:1006E0000006E80FF91F118300838091FD059091AA
:1006F000FE0501969093FE058093FD056C818A812D
:10070000DF91CF911F910F91D8C408950895089556
:100710001F920F920FB60F9211240BB60F922F93C8
:100720003F934F935F936F937F938F939F93AF9379
:10073000BF93EF93FF9348E251E064E271E080E001
:1007400090E021DFFF91EF91BF91AF919F918F9149
:100750007F916F915F914F913F912F910F900BBEC1
:100760000F900FBE0F901F9018951F920F920FB60B
:100770000F9211240BB60F922F933F934F935F93D9
:100780006F937F938F939F93AF93BF93EF93FF9359
:1007900048EA50E064EA70E083E090E0F4DEFF9124
:1007A000EF91BF91AF919F918F917F916F915F91E9
:1007B0004F913F912F910F900BBE0F900FBE0F9056
:1007C0001F9018951F920F920FB60F9211240BB61F
:1007D0000F922F933F934F935F936F937F938F93DA
:1007E0009F93AF93BF93EF93FF9348E950E064E981
:1007F00070E082E090E0C7DEFF91EF91BF91AF9192
:100800009F918F917F916F915F914F913F912F9128
:100810000F900BBE0F900FBE0F901F9018951F9258
:100820000F920FB60F9211240BB60F922F933F9396
:100830004F935F936F937F938F939F93AF93BF93E8
:10084000EF93FF9348E850E064E870E081E090E0C7
:100850009ADEFF91EF91BF91AF919F918F917F9120
:100860006F915F914F913F912F910F900BBE0F9021
:100870000FBE0F901F9018951F920F920FB60F92F8
:1008800011240BB60F922F933F934F935F936F9367
:100890007F938F939F93AF93BF93EF93FF93809139
:1008A000B900887F803609F49CC068F5883209F465
:1008B0005BC090F4803109F454C038F4882309F403
:1008C000F6C0883009F44DC0F5C0883109F44CC039
:1008D000803209F45DC0EEC0803409F468C048F489
:1008E000803309F455C0883309F0E4C08093540381
:1008F000D8C0803509F44FC0883509F45DC088340C
:1009000009F0D8C0D6C0883909F4C7C0A8F4883720
:1009100009F467C038F4883609F463C0803709F4F5
:1009200060C0C8C0883809F4B8C0803909F45FC015
:10093000803809F0BFC05BC0803B09F486C038F442
:10094000803A09F466C0883A09F47FC0B3C0803C9D
:1009500009F4A7C0883C09F4A4C0883B09F48AC004
:10096000A9C080917A0310C0909179038091780397
:10097000981770F5E091790381E08E0F80937903E9
:10098000F0E0E85AFC4F80818093BB0085EC86C084
:10099000809354038EC0E091790381E08E0F8093A1
:1009A00079038091BB00F0E0E85AFC4F808390917E
:1009B0007903809178036EC0E091790381E08E0F16
:1009C000809379038091BB00F0E0E85AFC4F80836C
:1009D0008091570381116DC081E08093560384EAB2
:1009E00061C083E08093550310925303CFCF809171
:1009F0005303803208F051C0E091530381E08E0F21
:100A0000809353038091BB00F0E0ED5CFC4F80834A
:100A1000BDCF85EC8093BC001092550380915303A9
:100A2000803230F4E0915303F0E0ED5CFC4F108233
:100A30006091530370E0E0913103F091320383E35E
:100A400093E019951092530335C084E080935503C9
:100A50001092300310922F03E0912D03F0912E039A
:100A6000199580912F03811105C081E080932F0398
:100A700010920D03E091300381E08E0F80933003DC
:100A8000F0E0E35FFC4F80818093BB0090913003E6
:100A900080912F03981708F479CF85E88093BC00E4
:100AA00009C085EC8093BC001092550303C01092DE
:100AB00054030BDDFF91EF91BF91AF919F918F9107
:100AC0007F916F915F914F913F912F910F900BBE4E
:100AD0000F900FBE0F901F90189580E280938000BA
:100AE00080910C03882319F010920C0302C0299AFC
:100AF0002998E0E1F4E080818EBD0DB407FEFDCFC2
:100B000081818EBD0DB407FEFDCF3396DF011197B5
:100B10008C918EBD0DB407FEFDCF84E0E835F8075B
:100B200050F381E08093580490EA90938000B09A4B
:100B300080936F0080E008951F920F920FB60F927E
:100B400011240BB60F922F933F934F935F936F93A4
:100B50007F938F939F93AF93BF93EF93FF9380E225
:100B60008093800010926F0010925804E0910A0365
:100B7000F0910B03309711F078941995FF91EF9154
:100B8000BF91AF919F918F917F916F915F914F91A5
:100B90003F912F910F900BBE0F900FBE0F901F90A3
:100BA0001895CF92DF92EF92FF920F931F93CF93FE
:100BB000DF936C017A018B01C0E0D0E0CE15DF0538
:100BC00089F0D8016D918D01D601ED91FC910190D4
:100BD000F081E02DC6011995892B11F47E0102C028
:100BE0002196ECCFC701DF91CF911F910F91FF901C
:100BF000EF90DF90CF900895FC01918D828D981732
:100C000061F0828DDF01A80FB11D5D968C91928DF0
:100C10009F5F9F73928F90E008958FEF9FEF0895ED
:100C2000FC01918D828D981731F0828DE80FF11DB6
:100C3000858D90E008958FEF9FEF08958BE495E008
:100C400019DB21E0892B09F420E0822F08950E940E
:100C5000580FEF92FF920F931F93CF93DF93EC0106
:100C600081E0888F9B8D8C8D981305C0E889F98968
:100C7000808185FD23C0F62E0B8D10E00F5F1F4F86
:100C80000F731127E02E8C8DE8120BC00FB607FCF6
:100C9000FACFE889F989808185FFF5CFCE01D1DCD3
:100CA000F2CF8B8DFE01E80FF11DE35AFF4FF0826A
:100CB0000B8FEA89FB898081806207C0EE89FF89FA
:100CC0006083E889F98980818064808381E090E095
:100CD000DF91CF911F910F91FF90EF900895CF93E7
:100CE000DF93EC01888D8823C1F0EA89FB8980813C
:100CF00085FD05C0A889B9898C9186FD0EC00FB607
:100D000007FCF5CF808185FFF2CFA889B9898C9146
:100D100085FFEDCFCE0195DCE8CFDF91CF9108952F
:100D20001F920F920FB60F9211240BB60F922F93B2
:100D30003F934F935F936F937F938F939F93AF9363
:100D4000BF93EF93FF938BE495E07BDCFF91EF91F2
:100D5000BF91AF919F918F917F916F915F914F91D3
:100D60003F912F910F900BBE0F900FBE0F901F90D1
:100D700018951F920F920FB60F9211240BB60F9277
:100D80002F938F939F93EF93FF93E0915B05F091E7
:100D90005C058081E0916105F091620582FD12C0E1
:100DA0009081809164058F5F8F7320916505821714
:100DB00051F0E0916405F0E0E55BFA4F958F809388
:100DC000640501C08081FF91EF919F918F912F91D8
:100DD0000F900BBE0F900FBE0F901F9018950097AD
:100DE00061F0FC0101900020E9F73197AF01481B49
:100DF000590BBC018BE495E0D4CE80E090E00895DF
:100E00002FB7F8948091170790911807A0911907B0
:100E1000B0911A072FBF8093530590935405A09368
:100E20005505B0935605E0914B05F0914C050084B3
:100E3000F185E02D8BE495E0199597FF26C02FB73B
:100E4000F8948091170790911807A0911907B09115
:100E50001A072FBF409153055091540560915505D5
:100E600070915605841B950BA60BB70B40914F054F
:100E70005091500560915105709152058417950766
:100E8000A607B70780F28FEF9FEF0895CF93DF9308
:100E9000A6DFEC0182E692E0A2DF8C0F9D1FDF91BE
:100EA000CF9108958F929F92AF92BF920F931F930D
:100EB000CF93DF93CDB7DEB7A1970FB6F894DEBF1F
:100EC0000FBECDBF19A2423008F44AE08E010F5D7B
:100ED0001F4F842E912CA12CB12CA50194010E94AE
:100EE000DF0FE62FB901CA0101501109EA3014F4ED
:100EF000E05D01C0E95CD801EC93232B242B252B6A
:100F000061F7C8016CDFA1960FB6F894DEBF0FBE83
:100F1000CDBFDF91CF911F910F91BF90AF909F9068
:100F20008F900895CF92DF92EF92FF92CF93DF934D
:100F30006B017C01E0914B05F0914C050190F08133
:100F4000E02D6DE28BE495E01995EC01662777279B
:100F5000CB016C197D098E099F094AE0A3DF8C0F34
:100F60009D1FDF91CF91FF90EF90DF90CF9008957C
:100F7000FF920F931F93CF93DF9300D01F92CDB7B3
:100F8000DEB73EDFFC0197FD11C08D32910591F077
:100F9000C0970A9778F0E0914B05F0914C050680D8
:100FA000F781E02D8BE495E01995EBCF60E070E0E0
:100FB000CB014AC020E030E0A901F12CE130F1057D
:100FC000E9F0ED32F105C1F0CF01C0970A97B0F416
:100FD000AAE0B0E0EAD78F01FF0F220B330BDC0150
:100FE000CB01800F911FA21FB31F9C01AD012053A5
:100FF00031094109510902C0FF24F394E0914B05E6
:10100000F0914C050680F781E02D8BE495E0298373
:101010003A834B835C831995F3DEFC01C0972981E9
:101020003A814B815C810A9748F2E130F10531F257
:10103000FF2041F066277727CB01621B730B840BDF
:10104000950B02C0CA01B9010F900F900F900F903D
:10105000DF91CF911F910F91FF9008950F931F93F0
:10106000CF93DF93EC01880F991FF5D58C01409148
:10107000FD055091FE05A091FF05B0910006FC0111
:1010800020E030E0CD01241735073CF46D917D91CF
:10109000619371932F5F3F4FF6CF009709F070D6A1
:1010A0000093FF0510930006D0930206C09301063B
:1010B000DF91CF911F910F910895362F90E0FC01A1
:1010C000E853FE4F4491FC01EE57FE4F2491FC0182
:1010D000E45CFE4F9491992309F46AC0442309F417
:1010E00054C050E0FA013197E231F10508F04DC0EB
:1010F0008827EE58FF4F8F4F0CC5809180008F7767
:1011000007C0809180008F7D03C080918000877F21
:10111000809380003AC084B58F7702C084B58F7DFC
:1011200084BD33C08091B0008F7703C08091B00040
:101130008F7D8093B00029C0809190008F7707C089
:10114000809190008F7D03C080919000877F809375
:1011500090001BC08091A0008F7707C08091A000F5
:101160008F7D03C08091A000877F8093A0000DC079
:10117000809120018F7707C0809120018F7D03C06F
:1011800080912001877F80932001E92FF0E0EE0F0E
:10119000FF1FEE5DFE4FA591B4918FB7F894EC91CF
:1011A000311103C020952E2301C02E2B2C938FBF0D
:1011B00008951F920F920FB60F9211242F933F9311
:1011C0008F939F93AF93BF938091170790911807C8
:1011D000A0911907B0911A0730911F0723E0230F40
:1011E0002D3720F40196A11DB11D05C026E8230F5F
:1011F0000296A11DB11D20931F078093170790939E
:101200001807A0931907B0931A0780911B079091B4
:101210001C07A0911D07B0911E070196A11DB11DCD
:1012200080931B0790931C07A0931D07B0931E0784
:10123000BF91AF919F918F913F912F910F900FBED2
:101240000F901F9018950895789484B5826084BD9E
:1012500084B5816084BD85B5826085BD85B58160BA
:1012600085BD80916E00816080936E001092810038
:1012700080918100826080938100809181008160F3
:1012800080938100809180008160809380008091B4
:10129000B10084608093B1008091B0008160809340
:1012A000B0008091910082608093910080919100C4
:1012B0008160809391008091900081608093900084
:1012C0008091A10082608093A1008091A100816043
:1012D0008093A1008091A00081608093A000809104
:1012E000210182608093210180912101816080939E
:1012F00021018091200181608093200180917A00FA
:10130000846080937A0080917A00826080937A0072
:1013100080917A00816080937A0080917A00806861
:1013200080937A001092C10089EB94E0A9E7B4E0C1
:10133000E9E5F4E08D939D931192049625E08933BD
:101340009207C1F7259A269A8091010180648093C3
:1013500001012E9A229A219A209A299881E08DBD26
:1013600080E58CBD80E28093800010926F00109227
:1013700058042D9A2D988093800080E180938100FD
:1013800081E090E0909389008093880082E090E073
:1013900090938B0080938A0080E090E29093870086
:1013A0008093860083E28093B00088E08093B10050
:1013B0001092B40083E08093B3008091B10081600B
:1013C0008093B10080918100816080938100809141
:1013D0005804811101C081DB80918100887F809356
:1013E000810080E29EE490938700809386001092B3
:1013F0008500109284008091B1001092B10010928B
:10140000B2009DE49093B3008093B100809181007D
:1014100082608093810020E030E08091FD05909112
:10142000FE052817390761F1E091FF05F0910006EC
:10143000C901880F991FE80FF91F808191819927B1
:10144000FC01EE57FE4F4491FC01E45CFE4F849199
:10145000882399F090E0880F991FFC01E85FFE4F08
:10146000A591B491FC01EE5DFE4F859194918FB7EB
:10147000F894EC91E42BEC938FBF2F5F3F4FCDCFCF
:10148000E0915B05F0915C0582E08083E091570577
:10149000F09158051082E0915905F0915A058FECB2
:1014A000808310926305E0915F05F091600586E00E
:1014B0008083E0915D05F0915E058081806180838D
:1014C000E0915D05F0915E05808188608083E09108
:1014D0005D05F0915E05808180688083E0915D0507
:1014E000F0915E0580818F7D808382E692E077DCDB
:1014F00085E692E0CBDC80E892E0C8DC82E992E00D
:101500006EDC87E992E06BDC87EA92E068DC81EBD5
:1015100092E0BCDC81EC92E0B9DCC0E0D0E11FE2FB
:101520008BE495E00E943A01181619060CF053C09E
:101530001FDD70934A05609349051ADD70934805D5
:10154000609347054091490550914A056115710521
:1015500069F05093460540934505509344054093E8
:10156000430570934205609341050CC020914505E9
:10157000309146053093440520934305509342052E
:10158000409341056091410570914205072E000C82
:10159000880B990B97FF02C0C5DC02C04AE082DCD1
:1015A0008FEA92E01CDC6091450570914605072E9C
:1015B000000C880B990B97FF02C0B4DC02C04AE014
:1015C00071DC82E692E00BDC83EE92E05FDC8BEF75
:1015D00092E005DCA5CF80914105909142052091D4
:1015E0004505863691053CF0813032E093072CF0BA
:1015F00080E092E002C086E690E0AE01481B590B05
:10160000CA01512F521B33E0539FF0011124F6956C
:10161000E795E05FFB4F50FF05C02081207F922BB4
:1016200090830CC09C0194E0369527959A95E1F73C
:1016300020838295807F91819F70892B8183809107
:101640005804811101C049DA2FB7F8948091170727
:1016500090911807A0911907B0911A072FBF809396
:101660003D0590933E05A0933F05B0934005409102
:10167000390550913A0560913B0570913C056C012C
:101680007D01C41AD50AE60AF70AB701A601453654
:10169000510561057105C0F28093390590933A05B3
:1016A000A0933B05B0933C050E94460139CF4F9271
:1016B0005F926F927F928F929F92AF92BF92CF92E2
:1016C000DF92EF92FF920F931F93CF93DF93EBE4A0
:1016D000F5E01382128288EE93E0A0E0B0E084830C
:1016E0009583A683B7832EE032E03183208325ECF7
:1016F00030E03587248724EC30E03787268720ECDC
:1017000030E0318B208B21EC30E0338B228B22ECCC
:1017100030E0358B248B26EC30E0378B268B118E16
:10172000128E138E148EEBE0F7E013821282848304
:101730009583A683B7838EE192E091838083E3E073
:10174000F7E08EE592E0918380832DE230E03383F1
:10175000228328E730E03583248320ED37E0378388
:101760002683EBEFF6E0918380834FE050E05383D4
:1017700042832AEF30E0358324832CEB32E0378339
:101780002683E3EFF6E0918380832AE030E0338321
:1017900022836EE571E07583648368EE73E077837E
:1017A0006683EBEEF6E09183808353834283ACE261
:1017B000B1E0B583A48344E650E057834683E3EE6B
:1017C000F6E091838083C6E0D0E0D383C283B58303
:1017D000A48357834683EBEDF6E0918380833383C4
:1017E000228355834483A4ECB9E0B783A683E3ED59
:1017F000F6E0918380833383228355834483178269
:101800001682EBECF6E091838083A5E0B0E0B38331
:10181000A2835583448324EF31E037832683E3ECAE
:10182000F6E09183808321E030E033832283558387
:10183000448377836683E3EBF6E013821282412CC4
:1018400080E8582E8BEB682E83E4782E44825582F4
:10185000668277828AE492E09183808340E050E060
:101860006CEC72E44487558766877787C12C10E853
:10187000D12E16EFE12E13E4F12EC086D186E2863A
:10188000F386E3EAF6E0338322834482558266825C
:101890007782918380834487558766877787C12CB9
:1018A000D12C05EFE02E03E4F02EC086D186E2862F
:1018B000F386E3E9F6E022E030E033832283812CF3
:1018C000912C2FE6A22E23E4B22E84829582A6824A
:1018D000B78291838083C486D586E686F786408763
:1018E000518762877387E3E8F6E023E030E03383D3
:1018F000228384829582A682B78291838083C48664
:10190000D586E686F7864087518762877387E3E747
:10191000F6E024E030E03383228300E010E829E998
:1019200033E404831583268337839183808344873C
:1019300055876687778700E010E020E034E4008771
:10194000118722873387E3E6F6E0B383A283412C35
:10195000A0E85A2EA2ED6A2EA3E47A2E4482558284
:1019600066827782918380834487558766877787ED
:10197000C086D186E286F386E3E5F6E0D383C283B0
:10198000412C512CB1E46B2EB3E47B2E4482558262
:101990006682778291838083C486D586E686F786C1
:1019A000C12CD12CCAEFEC2EC2E4FC2EC086D1860D
:1019B000E286F386E3E4F6E0A7E0B0E0B383A28337
:1019C000C12CD12CDEE8ED2ED3E4FD2EC482D582CD
:1019D000E682F7829183808304871587268737877D
:1019E00080869186A286B386E3E3F6E0A8E0B0E0C5
:1019F000B383A28314821582168217829183808317
:101A0000148615861686178610861186128613860A
:101A1000E3E2F6E0A9E2B0E0B383A283412CA0E8C0
:101A20005A2EA9E96A2EA3E47A2E44825582668250
:101A3000778291838083048715872687378740863E
:101A4000518662867386E3E1F6E0ACE0B0E0B383F2
:101A5000A283412C512CB5EA6B2EB3E47B2E448239
:101A60005582668277829183808344875587668713
:101A7000778740E050E86BEB73E4408751876287DB
:101A80007387E3E0F6E04BE050E053834283C48287
:101A9000D582E682F7829183808304871587268723
:101AA000378780869186A286B386ECEFF5E01282B6
:101AB0001182148213821682158241E061E270E085
:101AC00087EF95E00E94430341E06FE170E082EF11
:101AD00095E00E94430341E063E270E08DEE95E003
:101AE0000E94430341E065E270E088EE95E0DF91FB
:101AF000CF911F910F91FF90EF90DF90CF90BF900B
:101B0000AF909F908F907F906F905F904F900C94CC
:101B10004303EE0FFF1F881F8BBF0790F691E02D48
:101B200019945058BB27AA270ED005C2F6D130F021
:101B3000FBD120F031F49F3F11F41EF4EBC10EF401
:101B4000E095E7FBE1C1E92F07D280F3BA176207FE
:101B500073078407950718F071F49EF51FC20EF401
:101B6000E0950B2EBA2FA02D0B01B90190010C01AD
:101B7000CA01A0011124FF27591B99F0593F50F4C5
:101B8000503E68F11A16F040A22F232F342F44271D
:101B9000585FF3CF469537952795A795F040539515
:101BA000C9F77EF41F16BA0B620B730B840BBAF0E5
:101BB0009150A1F0FF0FBB1F661F771F881FC2F750
:101BC0000EC0BA0F621F731F841F48F48795779564
:101BD0006795B795F7959E3F08F0B3CF9395880F1B
:101BE00008F09927EE0F97958795089504D068948B
:101BF000B111D5C10895B8D188F09F5790F0B92F91
:101C00009927B751A0F0D1F0660F771F881F991F51
:101C10001AF0BA95C9F712C0B13081F0BFD1B1E066
:101C20000895BCC1672F782F8827B85F39F0B93F76
:101C3000CCF3869577956795B395D9F73EF4909553
:101C40008095709561957F4F8F4F9F4F089538D144
:101C500008F48FEF0895CF93DF938230910510F44D
:101C600082E090E0E0912207F091230720E030E04D
:101C7000C0E0D0E0309711F14081518148175907F9
:101C8000C0F04817590761F482819381209719F0B9
:101C90009B838A832BC0909323078093220726C0BF
:101CA0002115310519F04217530718F49A01BE01A6
:101CB000DF01EF010280F381E02DDCCF211531053A
:101CC00009F1281B390B2430310590F412968D91BF
:101CD0009C9113976115710521F0FB019383828319
:101CE00004C09093230780932207FD01329644C0DD
:101CF000FD01E20FF31F81939193225031092D933F
:101D00003C933AC02091200730912107232B41F4C6
:101D10002091020230910302309321072093200783
:101D200020910002309101022115310541F42DB7B7
:101D30003EB74091040250910502241B350BE091FF
:101D40002007F0912107E217F307A0F42E1B3F0BA9
:101D50002817390778F0AC014E5F5F4F241735071D
:101D600048F04E0F5F1F5093210740932007819347
:101D7000919302C0E0E0F0E0CF01DF91CF910895B0
:101D80000F931F93CF93DF93009709F48CC0FC014E
:101D900032971382128200912207109123070115B6
:101DA000110581F420813181820F931F209120073A
:101DB000309121072817390779F5F0932107E0932F
:101DC000200771C0D80140E050E0AE17BF0750F4C3
:101DD00012962D913C911397AD012115310509F112
:101DE000D901F3CF9D01DA013383228360817181B0
:101DF000860F971F8217930769F4EC0128813981B8
:101E0000260F371F2E5F3F4F318320838A819B81AE
:101E100093838283452B29F4F0932307E0932207D1
:101E200042C01396FC93EE931297ED01499159919C
:101E30009E01240F351FE217F30771F48081918111
:101E4000840F951F029611969C938E9382819381A5
:101E500013969C938E931297E0E0F0E0D8011296CF
:101E60008D919C911397009719F0F8018C01F6CF92
:101E70008D919C9198012E5F3F4F820F931F20916F
:101E80002007309121072817390769F4309729F482
:101E9000109223071092220702C01382128210931D
:101EA000210700932007DF91CF911F910F91089593
:101EB00081E090E0F894B4C003D008F481E0089584
:101EC000990F0008550FAA0BE0E8FEEF161617064B
:101ED000E807F907C0F012161306E407F50798F0B3
:101EE000621B730B840B950B39F40A2661F0232BCC
:101EF000242B252B21F408950A2609F4A140A69548
:101F00008FEF811D811D089597F99F6780E870E02C
:101F100060E008959FEF80EC089500240A9416165F
:101F2000170618060906089500240A9412161306C7
:101F3000140605060895092E0394000C11F4882355
:101F400052F0BB0F40F4BF2B11F460FF04C06F5F71
:101F50007F4F8F4F9F4F089557FD9058440F551F47
:101F600059F05F3F71F04795880F97FB991F61F01B
:101F70009F3F79F087950895121613061406551F92
:101F8000F2CF4695F1DF08C0161617061806991FFE
:101F9000F1CF86957105610508940895E894BB27F3
:101FA00066277727CB0197F908952BD0A59F900D31
:101FB000B49F900DA49F800D911D11240895A1E25E
:101FC0001A2EAA1BBB1BFD010DC0AA1FBB1FEE1FB3
:101FD000FF1FA217B307E407F50720F0A21BB30BFE
:101FE000E40BF50B661F771F881F991F1A9469F77A
:101FF00060957095809590959B01AC01BD01CF01D6
:102000000895A29FB001B39FC001A39F700D811DD1
:102010001124911DB29F700D811D1124911D0895F1
:1020200011E0C8E0D1E000E005C0802FFE0171DDC5
:102030002196011DC930D10780E00807B1F7F89457
:02204000FFCFD0
:1020420000002407800001000000000000002906B3
:10205200D1053A01FC0510066F0600000000AB0234
:1020620097025E025B025802570200000000420320
:10207200BD02000000008603C102D001C701BE01FB
:10208200B501A6017E01000000008703BB024E02DB
:1020920045023C0233020602D9010000000085031A
:1020A200BF020D0A003C20212121202D2D20202DB0
:1020B2002D2D2D2D2D2D202D2D20212121203E00B5
:1020C200504F534954494F4E53455420312E302ED0
:1020D20030006D696E3A00534552564F5F4D494E7E
:1020E2005F56414C554500203E3E206D61783A20B6
:1020F20000534552564F5F4D41585F56414C55452E
:1021020000696E736574203E3E2070696E6E756D57
:10211200626572203E3E20706F736974696F6E2033
:102122003E3E00203E3E205245434945564544200E
:10213200414E44204D4F56494E4700456E746572DC
:0A21420020706F736974696F6E00FE
:00000001FF
